{
  "contractName": "DAOCoursePlatform",
  "abi": [
    {
      "inputs": [
        {
          "internalType": "contract IERC20",
          "name": "_paymentToken",
          "type": "address"
        },
        {
          "internalType": "address[]",
          "name": "initialBoards",
          "type": "address[]"
        }
      ],
      "stateMutability": "nonpayable",
      "type": "constructor"
    },
    {
      "inputs": [
        {
          "internalType": "address",
          "name": "owner",
          "type": "address"
        }
      ],
      "name": "OwnableInvalidOwner",
      "type": "error"
    },
    {
      "inputs": [
        {
          "internalType": "address",
          "name": "account",
          "type": "address"
        }
      ],
      "name": "OwnableUnauthorizedAccount",
      "type": "error"
    },
    {
      "inputs": [
        {
          "internalType": "address",
          "name": "token",
          "type": "address"
        }
      ],
      "name": "SafeERC20FailedOperation",
      "type": "error"
    },
    {
      "anonymous": false,
      "inputs": [
        {
          "indexed": true,
          "internalType": "uint256",
          "name": "courseId",
          "type": "uint256"
        },
        {
          "indexed": true,
          "internalType": "address",
          "name": "student",
          "type": "address"
        }
      ],
      "name": "AppliedToCourse",
      "type": "event"
    },
    {
      "anonymous": false,
      "inputs": [
        {
          "indexed": true,
          "internalType": "uint256",
          "name": "courseId",
          "type": "uint256"
        },
        {
          "indexed": false,
          "internalType": "uint256",
          "name": "amount",
          "type": "uint256"
        }
      ],
      "name": "BonusDistributed",
      "type": "event"
    },
    {
      "anonymous": false,
      "inputs": [
        {
          "indexed": true,
          "internalType": "uint256",
          "name": "courseId",
          "type": "uint256"
        },
        {
          "indexed": true,
          "internalType": "address",
          "name": "student",
          "type": "address"
        }
      ],
      "name": "CourseCompleted",
      "type": "event"
    },
    {
      "anonymous": false,
      "inputs": [
        {
          "indexed": true,
          "internalType": "uint256",
          "name": "courseId",
          "type": "uint256"
        },
        {
          "indexed": false,
          "internalType": "string",
          "name": "title",
          "type": "string"
        },
        {
          "indexed": false,
          "internalType": "uint256",
          "name": "price",
          "type": "uint256"
        },
        {
          "indexed": false,
          "internalType": "address[]",
          "name": "teachers",
          "type": "address[]"
        }
      ],
      "name": "CourseCreated",
      "type": "event"
    },
    {
      "anonymous": false,
      "inputs": [
        {
          "indexed": true,
          "internalType": "uint256",
          "name": "courseId",
          "type": "uint256"
        }
      ],
      "name": "CourseRemoved",
      "type": "event"
    },
    {
      "anonymous": false,
      "inputs": [
        {
          "indexed": true,
          "internalType": "uint256",
          "name": "courseId",
          "type": "uint256"
        },
        {
          "indexed": true,
          "internalType": "address",
          "name": "student",
          "type": "address"
        }
      ],
      "name": "EnrollmentConfirmed",
      "type": "event"
    },
    {
      "anonymous": false,
      "inputs": [
        {
          "indexed": true,
          "internalType": "address",
          "name": "previousOwner",
          "type": "address"
        },
        {
          "indexed": true,
          "internalType": "address",
          "name": "newOwner",
          "type": "address"
        }
      ],
      "name": "OwnershipTransferred",
      "type": "event"
    },
    {
      "anonymous": false,
      "inputs": [
        {
          "indexed": true,
          "internalType": "uint256",
          "name": "id",
          "type": "uint256"
        },
        {
          "indexed": true,
          "internalType": "address",
          "name": "candidate",
          "type": "address"
        },
        {
          "indexed": false,
          "internalType": "enum DAOCoursePlatform.Role",
          "name": "roleToAdd",
          "type": "uint8"
        },
        {
          "indexed": false,
          "internalType": "uint256",
          "name": "start",
          "type": "uint256"
        },
        {
          "indexed": false,
          "internalType": "uint256",
          "name": "end",
          "type": "uint256"
        }
      ],
      "name": "ProposalCreated",
      "type": "event"
    },
    {
      "anonymous": false,
      "inputs": [
        {
          "indexed": true,
          "internalType": "uint256",
          "name": "proposalId",
          "type": "uint256"
        },
        {
          "indexed": false,
          "internalType": "bool",
          "name": "success",
          "type": "bool"
        }
      ],
      "name": "ProposalExecuted",
      "type": "event"
    },
    {
      "anonymous": false,
      "inputs": [
        {
          "indexed": true,
          "internalType": "uint256",
          "name": "courseId",
          "type": "uint256"
        },
        {
          "indexed": true,
          "internalType": "address",
          "name": "student",
          "type": "address"
        },
        {
          "indexed": true,
          "internalType": "address",
          "name": "teacher",
          "type": "address"
        },
        {
          "indexed": false,
          "internalType": "uint8",
          "name": "ratingValue",
          "type": "uint8"
        }
      ],
      "name": "RatingGiven",
      "type": "event"
    },
    {
      "anonymous": false,
      "inputs": [
        {
          "indexed": true,
          "internalType": "uint256",
          "name": "courseId",
          "type": "uint256"
        },
        {
          "indexed": true,
          "internalType": "address",
          "name": "teacher",
          "type": "address"
        },
        {
          "indexed": true,
          "internalType": "address",
          "name": "student",
          "type": "address"
        },
        {
          "indexed": false,
          "internalType": "bool",
          "name": "support",
          "type": "bool"
        }
      ],
      "name": "TeacherVotedOnEnrollment",
      "type": "event"
    },
    {
      "anonymous": false,
      "inputs": [
        {
          "indexed": true,
          "internalType": "address",
          "name": "to",
          "type": "address"
        },
        {
          "indexed": false,
          "internalType": "uint256",
          "name": "amount",
          "type": "uint256"
        }
      ],
      "name": "TreasuryPayout",
      "type": "event"
    },
    {
      "anonymous": false,
      "inputs": [
        {
          "indexed": true,
          "internalType": "uint256",
          "name": "proposalId",
          "type": "uint256"
        },
        {
          "indexed": true,
          "internalType": "address",
          "name": "voter",
          "type": "address"
        },
        {
          "indexed": false,
          "internalType": "bool",
          "name": "support",
          "type": "bool"
        }
      ],
      "name": "Voted",
      "type": "event"
    },
    {
      "inputs": [],
      "name": "owner",
      "outputs": [
        {
          "internalType": "address",
          "name": "",
          "type": "address"
        }
      ],
      "stateMutability": "view",
      "type": "function",
      "constant": true
    },
    {
      "inputs": [],
      "name": "paymentToken",
      "outputs": [
        {
          "internalType": "contract IERC20",
          "name": "",
          "type": "address"
        }
      ],
      "stateMutability": "view",
      "type": "function",
      "constant": true
    },
    {
      "inputs": [],
      "name": "proposalDuration",
      "outputs": [
        {
          "internalType": "uint256",
          "name": "",
          "type": "uint256"
        }
      ],
      "stateMutability": "view",
      "type": "function",
      "constant": true
    },
    {
      "inputs": [
        {
          "internalType": "uint256",
          "name": "",
          "type": "uint256"
        },
        {
          "internalType": "address",
          "name": "",
          "type": "address"
        },
        {
          "internalType": "address",
          "name": "",
          "type": "address"
        }
      ],
      "name": "rating",
      "outputs": [
        {
          "internalType": "uint8",
          "name": "",
          "type": "uint8"
        }
      ],
      "stateMutability": "view",
      "type": "function",
      "constant": true
    },
    {
      "inputs": [],
      "name": "renounceOwnership",
      "outputs": [],
      "stateMutability": "nonpayable",
      "type": "function"
    },
    {
      "inputs": [
        {
          "internalType": "address",
          "name": "",
          "type": "address"
        }
      ],
      "name": "teacherRatingCount",
      "outputs": [
        {
          "internalType": "uint256",
          "name": "",
          "type": "uint256"
        }
      ],
      "stateMutability": "view",
      "type": "function",
      "constant": true
    },
    {
      "inputs": [
        {
          "internalType": "address",
          "name": "",
          "type": "address"
        }
      ],
      "name": "teacherRatingSum",
      "outputs": [
        {
          "internalType": "uint256",
          "name": "",
          "type": "uint256"
        }
      ],
      "stateMutability": "view",
      "type": "function",
      "constant": true
    },
    {
      "inputs": [
        {
          "internalType": "address",
          "name": "newOwner",
          "type": "address"
        }
      ],
      "name": "transferOwnership",
      "outputs": [],
      "stateMutability": "nonpayable",
      "type": "function"
    },
    {
      "inputs": [
        {
          "internalType": "address",
          "name": "who",
          "type": "address"
        }
      ],
      "name": "roleOf",
      "outputs": [
        {
          "internalType": "enum DAOCoursePlatform.Role",
          "name": "",
          "type": "uint8"
        }
      ],
      "stateMutability": "view",
      "type": "function",
      "constant": true
    },
    {
      "inputs": [],
      "name": "boards",
      "outputs": [
        {
          "internalType": "address[]",
          "name": "",
          "type": "address[]"
        }
      ],
      "stateMutability": "view",
      "type": "function",
      "constant": true
    },
    {
      "inputs": [],
      "name": "teachers",
      "outputs": [
        {
          "internalType": "address[]",
          "name": "",
          "type": "address[]"
        }
      ],
      "stateMutability": "view",
      "type": "function",
      "constant": true
    },
    {
      "inputs": [],
      "name": "students",
      "outputs": [
        {
          "internalType": "address[]",
          "name": "",
          "type": "address[]"
        }
      ],
      "stateMutability": "view",
      "type": "function",
      "constant": true
    },
    {
      "inputs": [
        {
          "internalType": "address",
          "name": "candidate",
          "type": "address"
        },
        {
          "internalType": "enum DAOCoursePlatform.Role",
          "name": "roleToAdd",
          "type": "uint8"
        }
      ],
      "name": "createAdmissionProposal",
      "outputs": [
        {
          "internalType": "uint256",
          "name": "",
          "type": "uint256"
        }
      ],
      "stateMutability": "nonpayable",
      "type": "function"
    },
    {
      "inputs": [
        {
          "internalType": "uint256",
          "name": "proposalId",
          "type": "uint256"
        },
        {
          "internalType": "bool",
          "name": "support",
          "type": "bool"
        }
      ],
      "name": "castVote",
      "outputs": [],
      "stateMutability": "nonpayable",
      "type": "function"
    },
    {
      "inputs": [
        {
          "internalType": "uint256",
          "name": "proposalId",
          "type": "uint256"
        }
      ],
      "name": "executeProposal",
      "outputs": [],
      "stateMutability": "nonpayable",
      "type": "function"
    },
    {
      "inputs": [],
      "name": "treasuryBalance",
      "outputs": [
        {
          "internalType": "uint256",
          "name": "",
          "type": "uint256"
        }
      ],
      "stateMutability": "view",
      "type": "function",
      "constant": true
    },
    {
      "inputs": [
        {
          "internalType": "address",
          "name": "to",
          "type": "address"
        },
        {
          "internalType": "uint256",
          "name": "amount",
          "type": "uint256"
        }
      ],
      "name": "boardPayout",
      "outputs": [],
      "stateMutability": "nonpayable",
      "type": "function"
    },
    {
      "inputs": [
        {
          "internalType": "string",
          "name": "title",
          "type": "string"
        },
        {
          "internalType": "uint256",
          "name": "price",
          "type": "uint256"
        },
        {
          "internalType": "address[]",
          "name": "courseTeachers",
          "type": "address[]"
        },
        {
          "internalType": "uint256[]",
          "name": "shares",
          "type": "uint256[]"
        }
      ],
      "name": "createCourse",
      "outputs": [
        {
          "internalType": "uint256",
          "name": "",
          "type": "uint256"
        }
      ],
      "stateMutability": "nonpayable",
      "type": "function"
    },
    {
      "inputs": [
        {
          "internalType": "uint256",
          "name": "courseId",
          "type": "uint256"
        }
      ],
      "name": "removeCourse",
      "outputs": [],
      "stateMutability": "nonpayable",
      "type": "function"
    },
    {
      "inputs": [
        {
          "internalType": "uint256",
          "name": "courseId",
          "type": "uint256"
        }
      ],
      "name": "applyToCourse",
      "outputs": [],
      "stateMutability": "nonpayable",
      "type": "function"
    },
    {
      "inputs": [
        {
          "internalType": "uint256",
          "name": "courseId",
          "type": "uint256"
        },
        {
          "internalType": "address",
          "name": "studentAddr",
          "type": "address"
        },
        {
          "internalType": "bool",
          "name": "support",
          "type": "bool"
        }
      ],
      "name": "teacherVoteOnEnrollment",
      "outputs": [],
      "stateMutability": "nonpayable",
      "type": "function"
    },
    {
      "inputs": [
        {
          "internalType": "uint256",
          "name": "courseId",
          "type": "uint256"
        }
      ],
      "name": "confirmEnrollment",
      "outputs": [],
      "stateMutability": "nonpayable",
      "type": "function"
    },
    {
      "inputs": [
        {
          "internalType": "uint256",
          "name": "courseId",
          "type": "uint256"
        },
        {
          "internalType": "address",
          "name": "studentAddr",
          "type": "address"
        }
      ],
      "name": "completeCourseAndDistribute",
      "outputs": [],
      "stateMutability": "nonpayable",
      "type": "function"
    },
    {
      "inputs": [
        {
          "internalType": "uint256",
          "name": "courseId",
          "type": "uint256"
        },
        {
          "internalType": "address",
          "name": "teacherAddr",
          "type": "address"
        },
        {
          "internalType": "uint8",
          "name": "ratingValue",
          "type": "uint8"
        }
      ],
      "name": "giveRating",
      "outputs": [],
      "stateMutability": "nonpayable",
      "type": "function"
    },
    {
      "inputs": [
        {
          "internalType": "uint256",
          "name": "courseId",
          "type": "uint256"
        },
        {
          "internalType": "uint256",
          "name": "amount",
          "type": "uint256"
        }
      ],
      "name": "distributeBonusByRating",
      "outputs": [],
      "stateMutability": "nonpayable",
      "type": "function"
    },
    {
      "inputs": [
        {
          "internalType": "uint256",
          "name": "secondsDuration",
          "type": "uint256"
        }
      ],
      "name": "setProposalDuration",
      "outputs": [],
      "stateMutability": "nonpayable",
      "type": "function"
    },
    {
      "inputs": [
        {
          "internalType": "contract IERC20",
          "name": "token",
          "type": "address"
        },
        {
          "internalType": "address",
          "name": "to",
          "type": "address"
        },
        {
          "internalType": "uint256",
          "name": "amount",
          "type": "uint256"
        }
      ],
      "name": "rescueTokens",
      "outputs": [],
      "stateMutability": "nonpayable",
      "type": "function"
    }
  ],
  "bytecode": "0x60a06040526203f48060075560016008556001600a5534801562000021575f80fd5b50604051620030e4380380620030e483398101604081905262000044916200022e565b33806200006b57604051631e4fbdf760e01b81525f60048201526024015b60405180910390fd5b620000768162000133565b505f815111620000c95760405162461bcd60e51b815260206004820152601f60248201527f4e656564206174206c65617374206f6e6520696e697469616c20626f61726400604482015260640162000062565b6001600160a01b0382166080525f5b81518110156200012a5762000114828281518110620000fb57620000fb62000314565b602002602001015160016200018260201b90919060201c565b5080620001218162000328565b915050620000d8565b5050506200034d565b5f80546001600160a01b038381166001600160a01b0319831681178455604051919092169283917f8be0079c531659141344cd1fd0a4f28419497f9722a3daafe3b4186f6b6457e09190a35050565b5f62000198836001600160a01b038416620001a1565b90505b92915050565b5f818152600183016020526040812054620001e857508154600181810184555f8481526020808220909301849055845484825282860190935260409020919091556200019b565b505f6200019b565b6001600160a01b038116811462000205575f80fd5b50565b634e487b7160e01b5f52604160045260245ffd5b80516200022981620001f0565b919050565b5f806040838503121562000240575f80fd5b82516200024d81620001f0565b602084810151919350906001600160401b03808211156200026c575f80fd5b818601915086601f83011262000280575f80fd5b81518181111562000295576200029562000208565b8060051b604051601f19603f83011681018181108582111715620002bd57620002bd62000208565b604052918252848201925083810185019189831115620002db575f80fd5b938501935b828510156200030457620002f4856200021c565b84529385019392850192620002e0565b8096505050505050509250929050565b634e487b7160e01b5f52603260045260245ffd5b5f600182016200034657634e487b7160e01b5f52601160045260245ffd5b5060010190565b608051612d4d620003975f395f81816102860152818161091d015281816111630152818161177b01528181611a0e01528181611e410152818161205f01526121970152612d4d5ff3fe608060405234801561000f575f80fd5b50600436106101a1575f3560e01c80637d007ac1116100f3578063ba064ec111610093578063cea9d26f1161006e578063cea9d26f146103c6578063df3addfa146103d9578063ecf944f8146103ec578063f2fde38b146103f4575f80fd5b8063ba064ec114610398578063c0c90c33146103ab578063c1a2a8f4146103be575f80fd5b80639a9a4c38116100ce5780639a9a4c381461033f578063a5d7827e14610352578063b1765cf314610372578063b31d6aed14610385575f80fd5b80637d007ac1146103095780638d1e85481461031c5780638da5cb5b1461032f575f80fd5b8063301099621161015e5780634a77bd15116101395780634a77bd15146102c85780636919e17c146102db578063715018a6146102ee57806371d72397146102f6575f80fd5b806330109962146102785780633013ce2914610281578063313dab20146102c0575f80fd5b80630d61b519146101a55780630ed01037146101ba57806315373e3d146102045780631c91ec35146102175780632162e84e146102445780632efcb53914610263575b5f80fd5b6101b86101b336600461266c565b610407565b005b6101ed6101c8366004612697565b600d60209081525f938452604080852082529284528284209052825290205460ff1681565b60405160ff90911681526020015b60405180910390f35b6101b86102123660046126ea565b610639565b610236610225366004612714565b600e6020525f908152604090205481565b6040519081526020016101fb565b610236610252366004612714565b600f6020525f908152604090205481565b61026b6108f5565b6040516101fb919061272f565b61023660075481565b6102a87f000000000000000000000000000000000000000000000000000000000000000081565b6040516001600160a01b0390911681526020016101fb565b610236610906565b6101b86102d636600461277b565b61098e565b6101b86102e93660046127b6565b610c93565b6101b8610fb3565b6101b861030436600461266c565b610fc6565b6101b861031736600461266c565b6111cf565b61023661032a3660046127ef565b6111dc565b5f546001600160a01b03166102a8565b6101b861034d36600461266c565b6114c3565b610365610360366004612714565b611662565b6040516101fb919061285d565b6101b861038036600461286b565b6116b2565b6102366103933660046128d3565b611a8c565b6101b86103a6366004612997565b611d72565b6101b86103b93660046129c1565b611eaf565b61026b612213565b6101b86103d43660046129e4565b61221f565b6101b86103e736600461266c565b612240565b61026b6123b1565b6101b8610402366004612714565b6123bd565b5f818152600960205260408120805490910361045d5760405162461bcd60e51b815260206004820152601060248201526f139bc81cdd58da081c1c9bdc1bdcd85b60821b60448201526064015b60405180910390fd5b806005015442116104a45760405162461bcd60e51b81526020600482015260116024820152702b37ba34b7339039ba34b6361037b832b760791b6044820152606401610454565b600681015460ff16156104ec5760405162461bcd60e51b815260206004820152601060248201526f105b1c9958591e48195e1958dd5d195960821b6044820152606401610454565b60068101805460ff19166001179055600381015460028201545f9110801561052657505f826003015483600201546105249190612a36565b115b156105f857600180830154600160a01b900460ff16600381111561054c5761054c612829565b036105705760018083015461056a91906001600160a01b03166123fa565b506105f4565b60026001830154600160a01b900460ff16600381111561059257610592612829565b036105b157600182015461056a906003906001600160a01b03166123fa565b60036001830154600160a01b900460ff1660038111156105d3576105d3612829565b036105f45760018201546105f2906005906001600160a01b03166123fa565b505b5060015b827f948f4a9cd986f1118c3fbd459f7a22b23c0693e1ca3ef06a6a8be5aa7d39cc038260405161062c911515815260200190565b60405180910390a2505050565b5f828152600960205260408120805490910361068a5760405162461bcd60e51b815260206004820152601060248201526f139bc81cdd58da081c1c9bdc1bdcd85b60821b6044820152606401610454565b806004015442101580156106a2575080600501544211155b6106de5760405162461bcd60e51b815260206004820152600d60248201526c159bdd1a5b99c818db1bdcd959609a1b6044820152606401610454565b5f600180830154600160a01b900460ff16600381111561070057610700612829565b0361070d5750600361079e565b60036001830154600160a01b900460ff16600381111561072f5761072f612829565b0361073c5750600261079e565b60026001830154600160a01b900460ff16600381111561075e5761075e612829565b0361076b5750600161079e565b60405162461bcd60e51b815260206004820152600860248201526742616420726f6c6560c01b6044820152606401610454565b8060038111156107b0576107b0612829565b6107b933611662565b60038111156107ca576107ca612829565b1461080b5760405162461bcd60e51b81526020600482015260116024820152704e6f7420696e20656c6563746f7261746560781b6044820152606401610454565b335f90815260078301602052604090205460ff161561085c5760405162461bcd60e51b815260206004820152600d60248201526c105b1c9958591e481d9bdd1959609a1b6044820152606401610454565b335f9081526007830160205260409020805460ff19166001179055821561089c576001826002015f8282546108919190612a36565b909155506108b69050565b6001826003015f8282546108b09190612a36565b90915550505b6040518315158152339085907ff2913dbe661ee2acc4a046d8fbcdc792373bda34c41c6086484b5345e5785e5f9060200160405180910390a350505050565b60606109016003612415565b905090565b6040516370a0823160e01b81523060048201525f907f00000000000000000000000000000000000000000000000000000000000000006001600160a01b0316906370a0823190602401602060405180830381865afa15801561096a573d5f803e3d5ffd5b505050506040513d601f19601f820116820180604052508101906109019190612a49565b610999600333612421565b6109b55760405162461bcd60e51b815260040161045490612a60565b5f838152600b60205260409020600581015460ff166109e65760405162461bcd60e51b815260040161045490612a86565b5f805b6003830154811015610a4457336001600160a01b0316836003018281548110610a1457610a14612aa9565b5f918252602090912001546001600160a01b031603610a3257600191505b80610a3c81612abd565b9150506109e9565b5080610a8a5760405162461bcd60e51b81526020600482015260156024820152744e6f742074656163686572206f6620636f7572736560581b6044820152606401610454565b5f858152600c602090815260408083206001600160a01b03881684529091529020805460ff16610aed5760405162461bcd60e51b815260206004820152600e60248201526d27379030b8383634b1b0ba34b7b760911b6044820152606401610454565b335f90815260038201602052604090205460ff1615610b3e5760405162461bcd60e51b815260206004820152600d60248201526c105b1c9958591e481d9bdd1959609a1b6044820152606401610454565b6004810154610100900460ff1615610b8b5760405162461bcd60e51b815260206004820152601060248201526f105b1c9958591e48195b9c9bdb1b195960821b6044820152606401610454565b335f9081526003820160205260409020805460ff191660011790558315610bcb576001816001015f828254610bc09190612a36565b90915550610be59050565b6001816002015f828254610bdf9190612a36565b90915550505b846001600160a01b0316336001600160a01b0316877fb179a28bfc6609aadb5409b3c75d29630b921af81a6b6cc8881a2dde471e6b8687604051610c2d911515815260200190565b60405180910390a46003830154600282015460018301545f91610c4f91612a36565b9050818103610c8957826002015483600101541115610c7c5760048301805460ff19166001179055610c89565b60048301805460ff191690555b5050505050505050565b610c9e600533612421565b610cd95760405162461bcd60e51b815260206004820152600c60248201526b13db9b1e481cdd1d59195b9d60a21b6044820152606401610454565b60018160ff1610158015610cf1575060058160ff1611155b610d2a5760405162461bcd60e51b815260206004820152600a602482015269526174696e6720312d3560b01b6044820152606401610454565b5f838152600b60205260409020600581015460ff16610d5b5760405162461bcd60e51b815260040161045490612a86565b5f848152600c602090815260408083203384529091529020805460ff168015610d8d57506004810154610100900460ff165b610dd05760405162461bcd60e51b8152602060048201526014602482015273139bdd08195b9c9bdb1b1959081cdd1d59195b9d60621b6044820152606401610454565b5f805b6003840154811015610e2e57856001600160a01b0316846003018281548110610dfe57610dfe612aa9565b5f918252602090912001546001600160a01b031603610e1c57600191505b80610e2681612abd565b915050610dd3565b5080610e745760405162461bcd60e51b815260206004820152601560248201527454656163686572206e6f7420696e20636f7572736560581b6044820152606401610454565b5f868152600d6020908152604080832033845282528083206001600160a01b03891684529091528120805460ff87811660ff198316179092551690819003610f18576001600160a01b0386165f908152600e60205260408120805460ff88169290610ee0908490612a36565b90915550506001600160a01b0386165f908152600f60205260408120805460019290610f0d908490612a36565b90915550610f659050565b6001600160a01b0386165f908152600e602052604090205460ff80831691610f4291881690612a36565b610f4c9190612ad5565b6001600160a01b0387165f908152600e60205260409020555b60405160ff861681526001600160a01b03871690339089907fdcf612e1493d5a844feb8437e542e7896f50e263a38d52c861556bbc5c8382769060200160405180910390a450505050505050565b610fbb612442565b610fc45f61246e565b565b610fd1600533612421565b61100c5760405162461bcd60e51b815260206004820152600c60248201526b13db9b1e481cdd1d59195b9d60a21b6044820152606401610454565b5f818152600b60205260409020600581015460ff1661103d5760405162461bcd60e51b815260040161045490612a86565b5f828152600c602090815260408083203384529091529020805460ff16801561107057506004810154610100900460ff16155b6110b55760405162461bcd60e51b8152602060048201526016602482015275139bdd081c195b991a5b99c8195b9c9bdb1b1b595b9d60521b6044820152606401610454565b600481015460ff166111095760405162461bcd60e51b815260206004820152601c60248201527f4e6f7420616363657074656420627920746561636865727320796574000000006044820152606401610454565b5f8260020154116111505760405162461bcd60e51b8152602060048201526011602482015270436f75727365207072696365207a65726f60781b6044820152606401610454565b600282015461118d906001600160a01b037f00000000000000000000000000000000000000000000000000000000000000001690339030906124bd565b60048101805461ff001916610100179055604051339084907f60e47d279eed4aefa02ed886993ab9dd1a33516a7a645b776884fd1f42d6c72c905f90a3505050565b6111d7612442565b600755565b5f6001600160a01b0383166112275760405162461bcd60e51b8152602060048201526011602482015270496e76616c69642063616e64696461746560781b6044820152606401610454565b600182600381111561123b5761123b612829565b14806112585750600282600381111561125657611256612829565b145b806112745750600382600381111561127257611272612829565b145b6112af5760405162461bcd60e51b815260206004820152600c60248201526b496e76616c696420726f6c6560a01b6044820152606401610454565b60018260038111156112c3576112c3612829565b03611310576112d3600184612421565b156113105760405162461bcd60e51b815260206004820152600d60248201526c105b1c9958591e48189bd85c99609a1b6044820152606401610454565b600282600381111561132457611324612829565b0361137357611334600384612421565b156113735760405162461bcd60e51b815260206004820152600f60248201526e20b63932b0b23c903a32b0b1b432b960891b6044820152606401610454565b600382600381111561138757611387612829565b036113d657611397600584612421565b156113d65760405162461bcd60e51b815260206004820152600f60248201526e105b1c9958591e481cdd1d59195b9d608a1b6044820152606401610454565b600880545f91826113e683612abd565b909155505f8181526009602052604090208181556001810180546001600160a01b0388166001600160a01b0319821681178355939450919286926001600160a81b03191617600160a01b83600381111561144257611442612829565b0217905550426004820181905560075461145b91612a36565b6005820181905560068201805460ff1916905560048201546040516001600160a01b0388169285927f5647290e9e36406ab979be83115935ef2a2548d08015da9d1774685e26876e2e926114b1928a9291612ae8565b60405180910390a35090505b92915050565b6114ce600533612421565b61151a5760405162461bcd60e51b815260206004820152601760248201527f4f6e6c7920726567697374657265642073747564656e740000000000000000006044820152606401610454565b5f818152600b60205260409020600581015460ff166115725760405162461bcd60e51b815260206004820152601460248201527310dbdd5c9cd948191bd95cdb89dd08195e1a5cdd60621b6044820152606401610454565b5f828152600c602090815260408083203384529091529020805460ff1615806115b557506004810154610100900460ff161580156115b55750600481015460ff16155b6116015760405162461bcd60e51b815260206004820152601860248201527f416c7265616479206170706c6965642f656e726f6c6c656400000000000000006044820152606401610454565b805460ff1661163157805460ff1916600190811782555f908201819055600282015560048101805461ffff191690555b604051339084907fd42d0d1161e5eca3eb3f04fa4f199b77563d2000e95b1c5f99838d90ebc8a281905f90a3505050565b5f61166e600183612421565b1561167b57506001919050565b611686600383612421565b1561169357506002919050565b61169e600583612421565b156116ab57506003919050565b505f919050565b6116bd600133612421565b6116f65760405162461bcd60e51b815260206004820152600a60248201526913db9b1e48189bd85c9960b21b6044820152606401610454565b5f828152600b60205260409020600581015460ff166117275760405162461bcd60e51b815260040161045490612a86565b5f82116117645760405162461bcd60e51b815260206004820152600b60248201526a16995c9bc8185b5bdd5b9d60aa1b6044820152606401610454565b6040516370a0823160e01b815230600482015282907f00000000000000000000000000000000000000000000000000000000000000006001600160a01b0316906370a0823190602401602060405180830381865afa1580156117c8573d5f803e3d5ffd5b505050506040513d601f19601f820116820180604052508101906117ec9190612a49565b10156118325760405162461bcd60e51b8152602060048201526015602482015274496e73756666696369656e7420747265617375727960581b6044820152606401610454565b60038101545f90819067ffffffffffffffff81111561185357611853612b07565b60405190808252806020026020018201604052801561187c578160200160208202803683370190505b5090505f5b600384015481101561193b575f8460030182815481106118a3576118a3612aa9565b5f9182526020808320909101546001600160a01b0316808352600f8252604080842054600e909352832054909350909182156118f657826118e5836064612b1b565b6118ef9190612b32565b90506118fa565b5060645b8086868151811061190d5761190d612aa9565b60209081029190910101526119228188612a36565b965050505050808061193390612abd565b915050611881565b505f821161198b5760405162461bcd60e51b815260206004820152601760248201527f4e6f2077656967687420746f20646973747269627574650000000000000000006044820152606401610454565b5f5b6003840154811015611a4a575f8460030182815481106119af576119af612aa9565b5f91825260208220015484516001600160a01b03909116925085908590859081106119dc576119dc612aa9565b6020026020010151886119ef9190612b1b565b6119f99190612b32565b90508015611a3557611a356001600160a01b037f000000000000000000000000000000000000000000000000000000000000000016838361252a565b50508080611a4290612abd565b91505061198d565b50847f44978637513f4e736c4e6fce159848173cf0cb98b9a50db749a76ce7f78942f385604051611a7d91815260200190565b60405180910390a25050505050565b5f611a98600333612421565b611ab45760405162461bcd60e51b815260040161045490612a60565b83611af35760405162461bcd60e51b815260206004820152600f60248201526e4e656564207465616368657228732960881b6044820152606401610454565b838214611b425760405162461bcd60e51b815260206004820152601c60248201527f54656163686572732f736861726573206c656e206d69736d61746368000000006044820152606401610454565b5f805b83811015611b8557848482818110611b5f57611b5f612aa9565b9050602002013582611b719190612a36565b915080611b7d81612abd565b915050611b45565b508061271014611bd75760405162461bcd60e51b815260206004820152601f60248201527f536861726573206d7573742073756d20746f20313030303020283130302529006044820152606401610454565b600a80545f9182611be783612abd565b909155505f818152600b6020526040902081815590915060018101611c0d8b8d83612bd6565b506002810189905560058101805460ff191660011790555f5b87811015611d23575f898983818110611c4157611c41612aa9565b9050602002016020810190611c569190612714565b9050611c63600382612421565b611ca85760405162461bcd60e51b815260206004820152601660248201527515195858da195c881b9bdd081c9959da5cdd195c995960521b6044820152606401610454565b6003830180546001810182555f91825260209091200180546001600160a01b0319166001600160a01b038316179055878783818110611ce957611ce9612aa9565b6001600160a01b039093165f9081526004860160209081526040909120930291909101359091555080611d1b81612abd565b915050611c26565b50817fdc345ce0e2a4d765324fa5ed840f381bb0fd522e1419f2b727849f8e55d0fbc68c8c8c8c8c604051611d5c959493929190612c92565b60405180910390a2509998505050505050505050565b611d7d600133612421565b611db65760405162461bcd60e51b815260206004820152600a60248201526913db9b1e48189bd85c9960b21b6044820152606401610454565b6001600160a01b038216611df75760405162461bcd60e51b81526020600482015260086024820152672130b21030b2323960c11b6044820152606401610454565b5f8111611e345760405162461bcd60e51b815260206004820152600b60248201526a16995c9bc8185b5bdd5b9d60aa1b6044820152606401610454565b611e686001600160a01b037f000000000000000000000000000000000000000000000000000000000000000016838361252a565b816001600160a01b03167f6bce7f013e73cb844d353c7d5bb67ee29f888be4311ad86fa3cfbdb63c70ad8082604051611ea391815260200190565b60405180910390a25050565b5f828152600b60205260409020600581015460ff16611ee05760405162461bcd60e51b815260040161045490612a86565b5f611eec600133612421565b80611f0f575033611f045f546001600160a01b031690565b6001600160a01b0316145b90505f805b6003840154811015611f6f57336001600160a01b0316846003018281548110611f3f57611f3f612aa9565b5f918252602090912001546001600160a01b031603611f5d57600191505b80611f6781612abd565b915050611f14565b508180611f795750805b611fc55760405162461bcd60e51b815260206004820152601a60248201527f4e6f7420617574686f72697a656420746f20636f6d706c6574650000000000006044820152606401610454565b5f858152600c602090815260408083206001600160a01b03881684529091529020805460ff16801561200057506004810154610100900460ff165b6120435760405162461bcd60e51b815260206004820152601460248201527314dd1d59195b9d081b9bdd08195b9c9bdb1b195960621b6044820152606401610454565b60028401546040516370a0823160e01b815230600482015281907f00000000000000000000000000000000000000000000000000000000000000006001600160a01b0316906370a0823190602401602060405180830381865afa1580156120ac573d5f803e3d5ffd5b505050506040513d601f19601f820116820180604052508101906120d09190612a49565b101561211e5760405162461bcd60e51b815260206004820152601d60248201527f496e73756666696369656e7420636f6e74726163742062616c616e63650000006044820152606401610454565b5f5b60038601548110156121d4575f86600301828154811061214257612142612aa9565b5f9182526020808320909101546001600160a01b031680835260048a019091526040822054909250906127106121788387612b1b565b6121829190612b32565b905080156121be576121be6001600160a01b037f000000000000000000000000000000000000000000000000000000000000000016848361252a565b50505080806121cc90612abd565b915050612120565b506040516001600160a01b0387169088907f5bc083177651ab30489541022f7c6061da5d7d2157ea382267ea584eac645782905f90a350505050505050565b60606109016001612415565b612227612442565b61223b6001600160a01b038416838361252a565b505050565b61224b600333612421565b6122675760405162461bcd60e51b815260040161045490612a60565b5f818152600b60205260409020600581015460ff166122b95760405162461bcd60e51b815260206004820152600e60248201526d4e6f207375636820636f7572736560901b6044820152606401610454565b5f805b600383015481101561231757336001600160a01b03168360030182815481106122e7576122e7612aa9565b5f918252602090912001546001600160a01b03160361230557600191505b8061230f81612abd565b9150506122bc565b50808061232a575061232a600133612421565b6123765760405162461bcd60e51b815260206004820152601860248201527f4e6f7420617574686f72697a656420746f2072656d6f766500000000000000006044820152606401610454565b60058201805460ff1916905560405183907fc411c97a1db41250ce4fb55fc0218b3ff640b65c54edaec827e50b7e606f334c905f90a2505050565b60606109016005612415565b6123c5612442565b6001600160a01b0381166123ee57604051631e4fbdf760e01b81525f6004820152602401610454565b6123f78161246e565b50565b5f61240e836001600160a01b03841661255b565b9392505050565b60605f61240e836125a7565b6001600160a01b0381165f908152600183016020526040812054151561240e565b5f546001600160a01b03163314610fc45760405163118cdaa760e01b8152336004820152602401610454565b5f80546001600160a01b038381166001600160a01b0319831681178455604051919092169283917f8be0079c531659141344cd1fd0a4f28419497f9722a3daafe3b4186f6b6457e09190a35050565b6040516001600160a01b0384811660248301528381166044830152606482018390526125249186918216906323b872dd906084015b604051602081830303815290604052915060e01b6020820180516001600160e01b038381831617835250505050612600565b50505050565b6040516001600160a01b0383811660248301526044820183905261223b91859182169063a9059cbb906064016124f2565b5f8181526001830160205260408120546125a057508154600181810184555f8481526020808220909301849055845484825282860190935260409020919091556114bd565b505f6114bd565b6060815f018054806020026020016040519081016040528092919081815260200182805480156125f457602002820191905f5260205f20905b8154815260200190600101908083116125e0575b50505050509050919050565b5f8060205f8451602086015f885af18061261f576040513d5f823e3d81fd5b50505f513d91508115612636578060011415612643565b6001600160a01b0384163b155b1561252457604051635274afe760e01b81526001600160a01b0385166004820152602401610454565b5f6020828403121561267c575f80fd5b5035919050565b6001600160a01b03811681146123f7575f80fd5b5f805f606084860312156126a9575f80fd5b8335925060208401356126bb81612683565b915060408401356126cb81612683565b809150509250925092565b803580151581146126e5575f80fd5b919050565b5f80604083850312156126fb575f80fd5b8235915061270b602084016126d6565b90509250929050565b5f60208284031215612724575f80fd5b813561240e81612683565b602080825282518282018190525f9190848201906040850190845b8181101561276f5783516001600160a01b03168352928401929184019160010161274a565b50909695505050505050565b5f805f6060848603121561278d575f80fd5b83359250602084013561279f81612683565b91506127ad604085016126d6565b90509250925092565b5f805f606084860312156127c8575f80fd5b8335925060208401356127da81612683565b9150604084013560ff811681146126cb575f80fd5b5f8060408385031215612800575f80fd5b823561280b81612683565b915060208301356004811061281e575f80fd5b809150509250929050565b634e487b7160e01b5f52602160045260245ffd5b6004811061285957634e487b7160e01b5f52602160045260245ffd5b9052565b602081016114bd828461283d565b5f806040838503121561287c575f80fd5b50508035926020909101359150565b5f8083601f84011261289b575f80fd5b50813567ffffffffffffffff8111156128b2575f80fd5b6020830191508360208260051b85010111156128cc575f80fd5b9250929050565b5f805f805f805f6080888a0312156128e9575f80fd5b873567ffffffffffffffff80821115612900575f80fd5b818a0191508a601f830112612913575f80fd5b813581811115612921575f80fd5b8b6020828501011115612932575f80fd5b60209283019950975090890135955060408901359080821115612953575f80fd5b61295f8b838c0161288b565b909650945060608a0135915080821115612977575f80fd5b506129848a828b0161288b565b989b979a50959850939692959293505050565b5f80604083850312156129a8575f80fd5b82356129b381612683565b946020939093013593505050565b5f80604083850312156129d2575f80fd5b82359150602083013561281e81612683565b5f805f606084860312156129f6575f80fd5b8335612a0181612683565b92506020840135612a1181612683565b929592945050506040919091013590565b634e487b7160e01b5f52601160045260245ffd5b808201808211156114bd576114bd612a22565b5f60208284031215612a59575f80fd5b5051919050565b6020808252600c908201526b27b7363c903a32b0b1b432b960a11b604082015260600190565b6020808252600990820152684e6f20636f7572736560b81b604082015260600190565b634e487b7160e01b5f52603260045260245ffd5b5f60018201612ace57612ace612a22565b5060010190565b818103818111156114bd576114bd612a22565b60608101612af6828661283d565b602082019390935260400152919050565b634e487b7160e01b5f52604160045260245ffd5b80820281158282048414176114bd576114bd612a22565b5f82612b4c57634e487b7160e01b5f52601260045260245ffd5b500490565b600181811c90821680612b6557607f821691505b602082108103612b8357634e487b7160e01b5f52602260045260245ffd5b50919050565b601f82111561223b575f81815260208120601f850160051c81016020861015612baf5750805b601f850160051c820191505b81811015612bce57828155600101612bbb565b505050505050565b67ffffffffffffffff831115612bee57612bee612b07565b612c0283612bfc8354612b51565b83612b89565b5f601f841160018114612c33575f8515612c1c5750838201355b5f19600387901b1c1916600186901b178355612c8b565b5f83815260209020601f19861690835b82811015612c635786850135825560209485019460019092019101612c43565b5086821015612c7f575f1960f88860031b161c19848701351681555b505060018560011b0183555b5050505050565b60608152846060820152848660808301375f608086830181018290526020808401879052601f8801601f1916840184810383016040860152918201859052859183919060a0015b86831015612d09578335612cec81612683565b6001600160a01b0316815292810192600192909201918101612cd9565b9a995050505050505050505056fea26469706673582212204481c47343143f5f9a6083c0dc9fee6ff2a564dc7cc5801b7edaf0ca7800398a64736f6c63430008140033",
  "immutableReferences": {
    "7074": [
      {
        "length": 32,
        "start": 646
      },
      {
        "length": 32,
        "start": 2333
      },
      {
        "length": 32,
        "start": 4451
      },
      {
        "length": 32,
        "start": 6011
      },
      {
        "length": 32,
        "start": 6670
      },
      {
        "length": 32,
        "start": 7745
      },
      {
        "length": 32,
        "start": 8287
      },
      {
        "length": 32,
        "start": 8599
      }
    ]
  },
  "source": "// SPDX-License-Identifier: MIT\npragma solidity ^0.8.17;\n\nimport \"@openzeppelin/contracts/token/ERC20/IERC20.sol\";\nimport \"@openzeppelin/contracts/token/ERC20/utils/SafeERC20.sol\";\nimport \"@openzeppelin/contracts/utils/structs/EnumerableSet.sol\";\nimport \"@openzeppelin/contracts/access/Ownable.sol\";\n\n/**\n * @title DAOCoursePlatform\n * @notice Een onderwijs-DAO contract met rol-gebaseerde toelatings-votes, course management,\n *         betalingen in ERC20-stablecoin, en distributie + rating mechanics.\n *\n * Rollen:\n *  - BOARD (bestuurders)\n *  - TEACHER (docenten)\n *  - STUDENT (studenten)\n *\n * Toelatingen/votes:\n *  - STUDENTS stemmen over toevoeging van BOARD members\n *  - TEACHERS stemmen over toevoeging van STUDENTS\n *  - BOARD stemmen over toevoeging van TEACHERS\n *\n * Initial board members worden door de deployer opgegeven.\n * Board members kunnen uit de treasury betalen aan studenten.\n * Docenten kunnen courses maken/ verwijderen, studenten kunnen zich aanmelden.\n * Nadat docenten stemmen en student bevestigt, wordt betaling uitgevoerd (student moet eerst approve geven).\n * Na voltooiing wordt cursusgeld verdeeld onder docenten volgens shares.\n * Studenten kunnen docenten beoordelen; daaruit kan een bonusregeling gedistribueerd worden.\n */\ncontract DAOCoursePlatform is Ownable {\n    using SafeERC20 for IERC20;\n    using EnumerableSet for EnumerableSet.AddressSet;\n\n    enum Role { NONE, BOARD, TEACHER, STUDENT }\n\n    IERC20 public immutable paymentToken;\n\n    // Role sets\n    EnumerableSet.AddressSet private _boards;\n    EnumerableSet.AddressSet private _teachers;\n    EnumerableSet.AddressSet private _students;\n\n    // --- Voting proposals for role admission ---\n    struct Proposal {\n        uint256 id;\n        address candidate;\n        Role roleToAdd;\n        uint256 votesFor;\n        uint256 votesAgainst;\n        uint256 start; // block.timestamp\n        uint256 end;   // block.timestamp + duration\n        bool executed;\n        mapping(address => bool) voted;\n    }\n\n    uint256 public proposalDuration = 3 days;\n    uint256 private _nextProposalId = 1;\n    mapping(uint256 => Proposal) private _proposals;\n\n    // --- Course management ---\n    struct Course {\n        uint256 id;\n        string title;\n        uint256 price; // in paymentToken (token decimals respected externally)\n        address[] teachers;\n        mapping(address => uint256) teacherShares; // shares in basis points (sum to 10000)\n        bool exists;\n    }\n\n    uint256 private _nextCourseId = 1;\n    mapping(uint256 => Course) private _courses;\n\n    // Enrollment request per course per student\n    struct EnrollmentRequest {\n        bool exists;\n        uint256 votesFor;\n        uint256 votesAgainst;\n        mapping(address => bool) teacherVoted;\n        bool acceptedByTeachers;\n        bool enrolled; // after student confirms and pays\n    }\n\n    // courseId => student => EnrollmentRequest\n    mapping(uint256 => mapping(address => EnrollmentRequest)) private _enrollments;\n\n    // Ratings: courseId -> student -> teacher -> rating (1-5)\n    mapping(uint256 => mapping(address => mapping(address => uint8))) public rating;\n    // Aggregate teacher rating data: teacher -> sumRatings, countRatings\n    mapping(address => uint256) public teacherRatingSum;\n    mapping(address => uint256) public teacherRatingCount;\n\n    // Events\n    event ProposalCreated(uint256 indexed id, address indexed candidate, Role roleToAdd, uint256 start, uint256 end);\n    event Voted(uint256 indexed proposalId, address indexed voter, bool support);\n    event ProposalExecuted(uint256 indexed proposalId, bool success);\n\n    event CourseCreated(uint256 indexed courseId, string title, uint256 price, address[] teachers);\n    event CourseRemoved(uint256 indexed courseId);\n    event AppliedToCourse(uint256 indexed courseId, address indexed student);\n    event TeacherVotedOnEnrollment(uint256 indexed courseId, address indexed teacher, address indexed student, bool support);\n    event EnrollmentConfirmed(uint256 indexed courseId, address indexed student);\n    event CourseCompleted(uint256 indexed courseId, address indexed student);\n    event RatingGiven(uint256 indexed courseId, address indexed student, address indexed teacher, uint8 ratingValue);\n    event BonusDistributed(uint256 indexed courseId, uint256 amount);\n    event TreasuryPayout(address indexed to, uint256 amount);\n\n    // Modifiers\n    modifier onlyBoard() {\n        require(_boards.contains(msg.sender), \"Only board\");\n        _;\n    }\n    modifier onlyTeacher() {\n        require(_teachers.contains(msg.sender), \"Only teacher\");\n        _;\n    }\n    modifier onlyStudent() {\n        require(_students.contains(msg.sender), \"Only student\");\n        _;\n    }\n\n    constructor(IERC20 _paymentToken, address[] memory initialBoards) Ownable(msg.sender) {\n        require(initialBoards.length > 0, \"Need at least one initial board\");\n        paymentToken = _paymentToken;\n        for (uint256 i = 0; i < initialBoards.length; i++) {\n            _boards.add(initialBoards[i]);\n        }\n    }\n\n    // ---------- Role helpers ----------\n    function roleOf(address who) public view returns (Role) {\n        if (_boards.contains(who)) return Role.BOARD;\n        if (_teachers.contains(who)) return Role.TEACHER;\n        if (_students.contains(who)) return Role.STUDENT;\n        return Role.NONE;\n    }\n\n    function boards() external view returns (address[] memory) {\n        return _boards.values();\n    }\n    function teachers() external view returns (address[] memory) {\n        return _teachers.values();\n    }\n    function students() external view returns (address[] memory) {\n        return _students.values();\n    }\n\n    // ---------- Proposal logic ----------\n    function createAdmissionProposal(address candidate, Role roleToAdd) external returns (uint256) {\n        require(candidate != address(0), \"Invalid candidate\");\n        require(roleToAdd == Role.BOARD || roleToAdd == Role.TEACHER || roleToAdd == Role.STUDENT, \"Invalid role\");\n\n        // Validate that candidate isn't already in that role\n        if (roleToAdd == Role.BOARD) require(!_boards.contains(candidate), \"Already board\");\n        if (roleToAdd == Role.TEACHER) require(!_teachers.contains(candidate), \"Already teacher\");\n        if (roleToAdd == Role.STUDENT) require(!_students.contains(candidate), \"Already student\");\n\n        uint256 pid = _nextProposalId++;\n        Proposal storage p = _proposals[pid];\n        p.id = pid;\n        p.candidate = candidate;\n        p.roleToAdd = roleToAdd;\n        p.start = block.timestamp;\n        p.end = block.timestamp + proposalDuration;\n        p.executed = false;\n\n        emit ProposalCreated(pid, candidate, roleToAdd, p.start, p.end);\n        return pid;\n    }\n\n    function _electorateOf(Role r) internal view returns (address[] memory) {\n        if (r == Role.BOARD) return _boards.values();\n        if (r == Role.TEACHER) return _teachers.values();\n        if (r == Role.STUDENT) return _students.values();\n        return new address[](0);\n    }\n\n    function castVote(uint256 proposalId, bool support) external {\n        Proposal storage p = _proposals[proposalId];\n        require(p.id != 0, \"No such proposal\");\n        require(block.timestamp >= p.start && block.timestamp <= p.end, \"Voting closed\");\n        Role electorateRole;\n        // STUDENTS vote on BOARD; TEACHERS vote on STUDENTS; BOARD vote on TEACHERS\n        if (p.roleToAdd == Role.BOARD) electorateRole = Role.STUDENT;\n        else if (p.roleToAdd == Role.STUDENT) electorateRole = Role.TEACHER;\n        else if (p.roleToAdd == Role.TEACHER) electorateRole = Role.BOARD;\n        else revert(\"Bad role\");\n\n        require(roleOf(msg.sender) == electorateRole, \"Not in electorate\");\n        require(!p.voted[msg.sender], \"Already voted\");\n\n        p.voted[msg.sender] = true;\n        if (support) p.votesFor += 1;\n        else p.votesAgainst += 1;\n\n        emit Voted(proposalId, msg.sender, support);\n    }\n\n    function executeProposal(uint256 proposalId) external {\n        Proposal storage p = _proposals[proposalId];\n        require(p.id != 0, \"No such proposal\");\n        require(block.timestamp > p.end, \"Voting still open\");\n        require(!p.executed, \"Already executed\");\n\n        p.executed = true;\n\n        // Determine electorate size and majority\n\n        bool success = false;\n        // Simple rule: votesFor > votesAgainst and at least one vote OR quorum of >0. Use majority of votes cast.\n        if (p.votesFor > p.votesAgainst && (p.votesFor + p.votesAgainst) > 0) {\n            // add role\n            if (p.roleToAdd == Role.BOARD) _boards.add(p.candidate);\n            else if (p.roleToAdd == Role.TEACHER) _teachers.add(p.candidate);\n            else if (p.roleToAdd == Role.STUDENT) _students.add(p.candidate);\n            success = true;\n        }\n\n        emit ProposalExecuted(proposalId, success);\n    }\n\n    // ---------- Treasury & payouts ----------\n    // The contract itself acts as treasury holding paymentToken.\n\n    function treasuryBalance() public view returns (uint256) {\n        return paymentToken.balanceOf(address(this));\n    }\n\n    // Board can payout directly to student (e.g., scholarship)\n    function boardPayout(address to, uint256 amount) external onlyBoard {\n        require(to != address(0), \"Bad addr\");\n        require(amount > 0, \"Zero amount\");\n        paymentToken.safeTransfer(to, amount);\n        emit TreasuryPayout(to, amount);\n    }\n\n    // ---------- Course creation / removal ----------\n    function createCourse(string calldata title, uint256 price, address[] calldata courseTeachers, uint256[] calldata shares) external onlyTeacher returns (uint256) {\n        require(courseTeachers.length > 0, \"Need teacher(s)\");\n        require(courseTeachers.length == shares.length, \"Teachers/shares len mismatch\");\n\n        uint256 sumShares = 0;\n        for (uint256 i = 0; i < shares.length; i++) sumShares += shares[i];\n        require(sumShares == 10000, \"Shares must sum to 10000 (100%)\");\n\n        uint256 cid = _nextCourseId++;\n        Course storage c = _courses[cid];\n        c.id = cid;\n        c.title = title;\n        c.price = price;\n        c.exists = true;\n\n        for (uint256 i = 0; i < courseTeachers.length; i++) {\n            address t = courseTeachers[i];\n            require(_teachers.contains(t), \"Teacher not registered\");\n            c.teachers.push(t);\n            c.teacherShares[t] = shares[i];\n        }\n\n        emit CourseCreated(cid, title, price, courseTeachers);\n        return cid;\n    }\n\n    function removeCourse(uint256 courseId) external onlyTeacher {\n        Course storage c = _courses[courseId];\n        require(c.exists, \"No such course\");\n        // Only a teacher of that course or board can remove\n        bool isTeacherOfCourse = false;\n        for (uint256 i = 0; i < c.teachers.length; i++) if (c.teachers[i] == msg.sender) isTeacherOfCourse = true;\n        require(isTeacherOfCourse || _boards.contains(msg.sender), \"Not authorized to remove\");\n\n        // delete mapping data (note: teacherShares mapping entries remain but course will be marked non-existent)\n        c.exists = false;\n        emit CourseRemoved(courseId);\n    }\n\n    // ---------- Enrollment flow ----------\n    // Student applies\n    function applyToCourse(uint256 courseId) external {\n        require(_students.contains(msg.sender), \"Only registered student\");\n        Course storage c = _courses[courseId];\n        require(c.exists, \"Course doesn't exist\");\n\n        EnrollmentRequest storage er = _enrollments[courseId][msg.sender];\n        require(!er.exists || (!er.enrolled && !er.acceptedByTeachers), \"Already applied/enrolled\");\n\n        if (!er.exists) {\n            er.exists = true;\n            er.votesFor = 0;\n            er.votesAgainst = 0;\n            er.acceptedByTeachers = false;\n            er.enrolled = false;\n        }\n\n        emit AppliedToCourse(courseId, msg.sender);\n    }\n\n    // A teacher of the course votes on the enrollment\n    function teacherVoteOnEnrollment(uint256 courseId, address studentAddr, bool support) external onlyTeacher {\n        Course storage c = _courses[courseId];\n        require(c.exists, \"No course\");\n        // must be teacher of this course\n        bool isTeacherOfCourse = false;\n        for (uint256 i = 0; i < c.teachers.length; i++) if (c.teachers[i] == msg.sender) isTeacherOfCourse = true;\n        require(isTeacherOfCourse, \"Not teacher of course\");\n\n        EnrollmentRequest storage er = _enrollments[courseId][studentAddr];\n        require(er.exists, \"No application\");\n        require(!er.teacherVoted[msg.sender], \"Already voted\");\n        require(!er.enrolled, \"Already enrolled\");\n\n        er.teacherVoted[msg.sender] = true;\n        if (support) er.votesFor += 1; else er.votesAgainst += 1;\n\n        emit TeacherVotedOnEnrollment(courseId, msg.sender, studentAddr, support);\n\n        // if majority of teachers have voted and votesFor > votesAgainst then accept\n        uint256 totalTeachers = c.teachers.length;\n        uint256 votesCast = er.votesFor + er.votesAgainst;\n        if (votesCast == totalTeachers) {\n            if (er.votesFor > er.votesAgainst) {\n                er.acceptedByTeachers = true;\n            } else {\n                er.acceptedByTeachers = false;\n            }\n        }\n    }\n\n    // After acceptance by teachers, student confirms and pays. Student must approve contract for price.\n    function confirmEnrollment(uint256 courseId) external {\n        require(_students.contains(msg.sender), \"Only student\");\n        Course storage c = _courses[courseId];\n        require(c.exists, \"No course\");\n\n        EnrollmentRequest storage er = _enrollments[courseId][msg.sender];\n        require(er.exists && !er.enrolled, \"Not pending enrollment\");\n        require(er.acceptedByTeachers, \"Not accepted by teachers yet\");\n\n        // transfer price from student to contract\n        require(c.price > 0, \"Course price zero\");\n        paymentToken.safeTransferFrom(msg.sender, address(this), c.price);\n        er.enrolled = true;\n\n        emit EnrollmentConfirmed(courseId, msg.sender);\n    }\n\n    // Course completion  called by any teacher of course or board (or owner) to distribute fees\n    function completeCourseAndDistribute(uint256 courseId, address studentAddr) external {\n        Course storage c = _courses[courseId];\n        require(c.exists, \"No course\");\n\n        // Only teacher of course, board or owner can mark complete\n        bool allowed = _boards.contains(msg.sender) || owner() == msg.sender;\n        bool isTeacherOfCourse = false;\n        for (uint256 i = 0; i < c.teachers.length; i++) if (c.teachers[i] == msg.sender) isTeacherOfCourse = true;\n        require(allowed || isTeacherOfCourse, \"Not authorized to complete\");\n\n        EnrollmentRequest storage er = _enrollments[courseId][studentAddr];\n        require(er.exists && er.enrolled, \"Student not enrolled\");\n\n        uint256 total = c.price;\n        require(paymentToken.balanceOf(address(this)) >= total, \"Insufficient contract balance\");\n\n        // distribute according to shares\n        for (uint256 i = 0; i < c.teachers.length; i++) {\n            address t = c.teachers[i];\n            uint256 shareBp = c.teacherShares[t];\n            uint256 amount = (total * shareBp) / 10000;\n            if (amount > 0) paymentToken.safeTransfer(t, amount);\n        }\n\n        emit CourseCompleted(courseId, studentAddr);\n    }\n\n    // ---------- Ratings & Bonus ----------\n    function giveRating(uint256 courseId, address teacherAddr, uint8 ratingValue) external onlyStudent {\n        require(ratingValue >= 1 && ratingValue <= 5, \"Rating 1-5\");\n        Course storage c = _courses[courseId];\n        require(c.exists, \"No course\");\n\n        // student must have been enrolled in this course\n        EnrollmentRequest storage er = _enrollments[courseId][msg.sender];\n        require(er.exists && er.enrolled, \"Not enrolled student\");\n\n        // teacher must be part of course\n        bool teacherInCourse = false;\n        for (uint256 i = 0; i < c.teachers.length; i++) if (c.teachers[i] == teacherAddr) teacherInCourse = true;\n        require(teacherInCourse, \"Teacher not in course\");\n\n        // if student already rated this teacher for this course, update aggregates\n        uint8 previous = rating[courseId][msg.sender][teacherAddr];\n        rating[courseId][msg.sender][teacherAddr] = ratingValue;\n\n        if (previous == 0) {\n            teacherRatingSum[teacherAddr] += ratingValue;\n            teacherRatingCount[teacherAddr] += 1;\n        } else {\n            teacherRatingSum[teacherAddr] = teacherRatingSum[teacherAddr] + ratingValue - previous;\n        }\n\n        emit RatingGiven(courseId, msg.sender, teacherAddr, ratingValue);\n    }\n\n    // Board can distribute a bonus pool for a course to its teachers proportional to average rating\n    function distributeBonusByRating(uint256 courseId, uint256 amount) external onlyBoard {\n        Course storage c = _courses[courseId];\n        require(c.exists, \"No course\");\n        require(amount > 0, \"Zero amount\");\n        require(paymentToken.balanceOf(address(this)) >= amount, \"Insufficient treasury\");\n\n        // compute total weighted rating for teachers in this course\n        uint256 totalWeight = 0;\n        uint256[] memory teacherWeight = new uint256[](c.teachers.length);\n        for (uint256 i = 0; i < c.teachers.length; i++) {\n            address t = c.teachers[i];\n            uint256 count = teacherRatingCount[t];\n            uint256 sum = teacherRatingSum[t];\n            uint256 avgBp = 0; // average * 100 (to avoid fractions)\n            if (count > 0) {\n                // average rating in basis points (rating 1-5 mapped to 100-500)\n                avgBp = (sum * 100) / count; // 100..500\n            } else {\n                avgBp = 100; // default minimal weight\n            }\n            teacherWeight[i] = avgBp;\n            totalWeight += avgBp;\n        }\n        require(totalWeight > 0, \"No weight to distribute\");\n\n        // distribute amount proportionally\n        for (uint256 i = 0; i < c.teachers.length; i++) {\n            address t = c.teachers[i];\n            uint256 share = (amount * teacherWeight[i]) / totalWeight;\n            if (share > 0) paymentToken.safeTransfer(t, share);\n        }\n\n        emit BonusDistributed(courseId, amount);\n    }\n\n    // ---------- Admin utilities ----------\n    function setProposalDuration(uint256 secondsDuration) external onlyOwner {\n        proposalDuration = secondsDuration;\n    }\n\n    // emergency: owner can rescue tokens\n    function rescueTokens(IERC20 token, address to, uint256 amount) external onlyOwner {\n        token.safeTransfer(to, amount);\n    }\n}\n",
  "sourcePath": "/Users/yannick/Documents/Business Innovation with Blockchain/marktwerking-onderwijs/code/ethereum/contracts/daocourse_platform.sol",
  "compiler": {
    "name": "solc",
    "version": "0.8.20+commit.a1b79de6.Emscripten.clang"
  },
  "schemaVersion": "3.4.16",
  "updatedAt": "2025-09-10T15:10:52.550Z",
  "networkType": "ethereum",
  "devdoc": {
    "errors": {
      "OwnableInvalidOwner(address)": [
        {
          "details": "The owner is not a valid owner account. (eg. `address(0)`)"
        }
      ],
      "OwnableUnauthorizedAccount(address)": [
        {
          "details": "The caller account is not authorized to perform an operation."
        }
      ],
      "SafeERC20FailedOperation(address)": [
        {
          "details": "An operation with an ERC-20 token failed."
        }
      ]
    },
    "kind": "dev",
    "methods": {
      "owner()": {
        "details": "Returns the address of the current owner."
      },
      "renounceOwnership()": {
        "details": "Leaves the contract without owner. It will not be possible to call `onlyOwner` functions. Can only be called by the current owner. NOTE: Renouncing ownership will leave the contract without an owner, thereby disabling any functionality that is only available to the owner."
      },
      "transferOwnership(address)": {
        "details": "Transfers ownership of the contract to a new account (`newOwner`). Can only be called by the current owner."
      }
    },
    "title": "DAOCoursePlatform",
    "version": 1
  },
  "userdoc": {
    "kind": "user",
    "methods": {},
    "notice": "Een onderwijs-DAO contract met rol-gebaseerde toelatings-votes, course management,         betalingen in ERC20-stablecoin, en distributie + rating mechanics. Rollen:  - BOARD (bestuurders)  - TEACHER (docenten)  - STUDENT (studenten) Toelatingen/votes:  - STUDENTS stemmen over toevoeging van BOARD members  - TEACHERS stemmen over toevoeging van STUDENTS  - BOARD stemmen over toevoeging van TEACHERS Initial board members worden door de deployer opgegeven. Board members kunnen uit de treasury betalen aan studenten. Docenten kunnen courses maken/ verwijderen, studenten kunnen zich aanmelden. Nadat docenten stemmen en student bevestigt, wordt betaling uitgevoerd (student moet eerst approve geven). Na voltooiing wordt cursusgeld verdeeld onder docenten volgens shares. Studenten kunnen docenten beoordelen; daaruit kan een bonusregeling gedistribueerd worden.",
    "version": 1
  }
}